{
  "_format": "hh-sol-artifact-1",
  "contractName": "BooksDatabase",
  "sourceName": "contracts/BookDatabase.sol",
  "abi": [
    {
      "inputs": [],
      "stateMutability": "nonpayable",
      "type": "constructor"
    },
    {
      "inputs": [
        {
          "components": [
            {
              "internalType": "string",
              "name": "title",
              "type": "string"
            },
            {
              "internalType": "uint16",
              "name": "year",
              "type": "uint16"
            }
          ],
          "internalType": "struct BooksDatabase.Book",
          "name": "newBook",
          "type": "tuple"
        }
      ],
      "name": "addBook",
      "outputs": [],
      "stateMutability": "nonpayable",
      "type": "function"
    },
    {
      "inputs": [
        {
          "internalType": "uint32",
          "name": "",
          "type": "uint32"
        }
      ],
      "name": "books",
      "outputs": [
        {
          "internalType": "string",
          "name": "title",
          "type": "string"
        },
        {
          "internalType": "uint16",
          "name": "year",
          "type": "uint16"
        }
      ],
      "stateMutability": "view",
      "type": "function"
    },
    {
      "inputs": [],
      "name": "count",
      "outputs": [
        {
          "internalType": "uint256",
          "name": "",
          "type": "uint256"
        }
      ],
      "stateMutability": "view",
      "type": "function"
    },
    {
      "inputs": [
        {
          "internalType": "uint32",
          "name": "idBook",
          "type": "uint32"
        }
      ],
      "name": "deleteBook",
      "outputs": [],
      "stateMutability": "nonpayable",
      "type": "function"
    },
    {
      "inputs": [
        {
          "internalType": "uint32",
          "name": "idBook",
          "type": "uint32"
        },
        {
          "components": [
            {
              "internalType": "string",
              "name": "title",
              "type": "string"
            },
            {
              "internalType": "uint16",
              "name": "year",
              "type": "uint16"
            }
          ],
          "internalType": "struct BooksDatabase.Book",
          "name": "newBook",
          "type": "tuple"
        }
      ],
      "name": "editBook",
      "outputs": [],
      "stateMutability": "nonpayable",
      "type": "function"
    }
  ],
  "bytecode": "0x608060405234801561001057600080fd5b50336000806101000a81548173ffffffffffffffffffffffffffffffffffffffff021916908373ffffffffffffffffffffffffffffffffffffffff160217905550610e70806100606000396000f3fe608060405234801561001057600080fd5b50600436106100575760003560e01c806306661abd1461005c57806346d1c1511461007a57806368d748ca14610096578063b19a4635146100c7578063feaeb5ab146100e3575b600080fd5b6100646100ff565b6040516100719190610633565b60405180910390f35b610094600480360381019061008f919061069e565b610105565b005b6100b060048036038101906100ab919061069e565b610233565b6040516100be929190610778565b60405180910390f35b6100e160048036038101906100dc919061097f565b6102ed565b005b6100fd60048036038101906100f891906109c8565b6103b6565b005b60015481565b3373ffffffffffffffffffffffffffffffffffffffff1660008054906101000a900473ffffffffffffffffffffffffffffffffffffffff1673ffffffffffffffffffffffffffffffffffffffff1614610193576040517f08c379a000000000000000000000000000000000000000000000000000000000815260040161018a90610a70565b60405180910390fd5b6000600260008363ffffffff1663ffffffff16815260200190815260200160002060010160009054906101000a900461ffff1661ffff16111561023057600160008154809291906101e390610abf565b9190505550600260008263ffffffff1663ffffffff1681526020019081526020016000206000808201600061021891906105bd565b6001820160006101000a81549061ffff021916905550505b50565b600260205280600052604060002060009150905080600001805461025690610b17565b80601f016020809104026020016040519081016040528092919081815260200182805461028290610b17565b80156102cf5780601f106102a4576101008083540402835291602001916102cf565b820191906000526020600020905b8154815290600101906020018083116102b257829003601f168201915b5050505050908060010160009054906101000a900461ffff16905082565b6000601481819054906101000a900463ffffffff168092919061030f90610b48565b91906101000a81548163ffffffff021916908363ffffffff160217905550506001600081548092919061034190610b74565b919050555080600260008060149054906101000a900463ffffffff1663ffffffff1663ffffffff168152602001908152602001600020600082015181600001908161038c9190610d68565b5060208201518160010160006101000a81548161ffff021916908361ffff16021790555090505050565b6000600260008463ffffffff1663ffffffff1681526020019081526020016000206040518060400160405290816000820180546103f290610b17565b80601f016020809104026020016040519081016040528092919081815260200182805461041e90610b17565b801561046b5780601f106104405761010080835404028352916020019161046b565b820191906000526020600020905b81548152906001019060200180831161044e57829003601f168201915b505050505081526020016001820160009054906101000a900461ffff1661ffff1661ffff168152505090506104a88160000151836000015161058a565b1580156104cf57506104cd81600001516040518060200160405280600081525061058a565b155b156104e257816000015181600001819052505b6000826020015161ffff161415801561050b5750816020015161ffff16816020015161ffff1614155b15610529578160200151816020019061ffff16908161ffff16815250505b80600260008563ffffffff1663ffffffff168152602001908152602001600020600082015181600001908161055e9190610d68565b5060208201518160010160006101000a81548161ffff021916908361ffff160217905550905050505050565b6000808390506000839050805182511480156105b3575080805190602001208280519060200120145b9250505092915050565b5080546105c990610b17565b6000825580601f106105db57506105fa565b601f0160209004906000526020600020908101906105f991906105fd565b5b50565b5b808211156106165760008160009055506001016105fe565b5090565b6000819050919050565b61062d8161061a565b82525050565b60006020820190506106486000830184610624565b92915050565b6000604051905090565b600080fd5b600080fd5b600063ffffffff82169050919050565b61067b81610662565b811461068657600080fd5b50565b60008135905061069881610672565b92915050565b6000602082840312156106b4576106b3610658565b5b60006106c284828501610689565b91505092915050565b600081519050919050565b600082825260208201905092915050565b60005b838110156107055780820151818401526020810190506106ea565b60008484015250505050565b6000601f19601f8301169050919050565b600061072d826106cb565b61073781856106d6565b93506107478185602086016106e7565b61075081610711565b840191505092915050565b600061ffff82169050919050565b6107728161075b565b82525050565b600060408201905081810360008301526107928185610722565b90506107a16020830184610769565b9392505050565b600080fd5b7f4e487b7100000000000000000000000000000000000000000000000000000000600052604160045260246000fd5b6107e582610711565b810181811067ffffffffffffffff82111715610804576108036107ad565b5b80604052505050565b600061081761064e565b905061082382826107dc565b919050565b600080fd5b600080fd5b600080fd5b600067ffffffffffffffff821115610852576108516107ad565b5b61085b82610711565b9050602081019050919050565b82818337600083830152505050565b600061088a61088584610837565b61080d565b9050828152602081018484840111156108a6576108a5610832565b5b6108b1848285610868565b509392505050565b600082601f8301126108ce576108cd61082d565b5b81356108de848260208601610877565b91505092915050565b6108f08161075b565b81146108fb57600080fd5b50565b60008135905061090d816108e7565b92915050565b600060408284031215610929576109286107a8565b5b610933604061080d565b9050600082013567ffffffffffffffff81111561095357610952610828565b5b61095f848285016108b9565b6000830152506020610973848285016108fe565b60208301525092915050565b60006020828403121561099557610994610658565b5b600082013567ffffffffffffffff8111156109b3576109b261065d565b5b6109bf84828501610913565b91505092915050565b600080604083850312156109df576109de610658565b5b60006109ed85828601610689565b925050602083013567ffffffffffffffff811115610a0e57610a0d61065d565b5b610a1a85828601610913565b9150509250929050565b7f536169206461717569206f2073657520636163686f72726f2100000000000000600082015250565b6000610a5a6019836106d6565b9150610a6582610a24565b602082019050919050565b60006020820190508181036000830152610a8981610a4d565b9050919050565b7f4e487b7100000000000000000000000000000000000000000000000000000000600052601160045260246000fd5b6000610aca8261061a565b915060008203610add57610adc610a90565b5b600182039050919050565b7f4e487b7100000000000000000000000000000000000000000000000000000000600052602260045260246000fd5b60006002820490506001821680610b2f57607f821691505b602082108103610b4257610b41610ae8565b5b50919050565b6000610b5382610662565b915063ffffffff8203610b6957610b68610a90565b5b600182019050919050565b6000610b7f8261061a565b91507fffffffffffffffffffffffffffffffffffffffffffffffffffffffffffffffff8203610bb157610bb0610a90565b5b600182019050919050565b60008190508160005260206000209050919050565b60006020601f8301049050919050565b600082821b905092915050565b600060088302610c1e7fffffffffffffffffffffffffffffffffffffffffffffffffffffffffffffffff82610be1565b610c288683610be1565b95508019841693508086168417925050509392505050565b6000819050919050565b6000610c65610c60610c5b8461061a565b610c40565b61061a565b9050919050565b6000819050919050565b610c7f83610c4a565b610c93610c8b82610c6c565b848454610bee565b825550505050565b600090565b610ca8610c9b565b610cb3818484610c76565b505050565b5b81811015610cd757610ccc600082610ca0565b600181019050610cb9565b5050565b601f821115610d1c57610ced81610bbc565b610cf684610bd1565b81016020851015610d05578190505b610d19610d1185610bd1565b830182610cb8565b50505b505050565b600082821c905092915050565b6000610d3f60001984600802610d21565b1980831691505092915050565b6000610d588383610d2e565b9150826002028217905092915050565b610d71826106cb565b67ffffffffffffffff811115610d8a57610d896107ad565b5b610d948254610b17565b610d9f828285610cdb565b600060209050601f831160018114610dd25760008415610dc0578287015190505b610dca8582610d4c565b865550610e32565b601f198416610de086610bbc565b60005b82811015610e0857848901518255600182019150602085019450602081019050610de3565b86831015610e255784890151610e21601f891682610d2e565b8355505b6001600288020188555050505b50505050505056fea2646970667358221220f87ccbe32c495ad71f810ddfa8f69adc57e7757241c256ab99e486b9b7fffd4264736f6c63430008180033",
  "linkReferences": {},
  "deployedLinkReferences": {}
}